:020000040800F2
:1000000000060020E1020008E3020008E302000805
:10001000E3020008E3020008E3020008E30200082C
:10002000E3020008E3020008E30200087D30000854
:10003000E3020008E3020008E3020008E30200080C
:10004000E3020008E3020008E3020008E3020008FC
:10005000E3020008E3020008A9470008D5470008AA
:10006000014800082D4800085948000831110008CF
:100070005911000885110008B1110008DD110008B0
:100080000512000831120008E3020008E30200082C
:10009000E3020008E3020008E302000885480008C4
:1000A000E3020008E3020008E3020008E30200089C
:1000B000E3020008E3020008E3020008E30200088C
:1000C000E3020008E3020008E3020008E30200087C
:1000D000E30200085D490008E3020008E3020008AB
:1000E000E9480008E3020008E3020008E302000810
:1000F000E3020008E3020008E30200085D120008C2
:10010000E3020008E302000871490008E302000866
:10011000E3020008E3020008E3020008E30200082B
:1001200089120008B1120008DD1200080913000846
:1001300035130008E3020008E3020008E3020008A8
:10014000E3020008E3020008E3020008E3020008FB
:100150005D13000889130008B5130008E3020008C6
:10016000E3020008E3020008E3020008E3020008DB
:10017000E3020008453C0008E3020008E30200082F
:10018000E3020008E3020008E3020008E3020008BB
:10019000E3020008E3020008E3020008E3020008AB
:1001A000E3020008E3020008E3020008E30200089B
:1001B000E3020008E3020008E3020008E30200088B
:1001C000E3020008E3020008E3020008E30200087B
:1001D000E3020008313C0008E3020008E3020008E3
:1001E000E3020008E3020008E3020008E30200085B
:1001F000E3020008E3020008E3020008E30200084B
:10020000E3020008E3020008E3020008E30200083A
:10021000E3020008E3020008E3020008E30200082A
:10022000E3020008E3020008E3020008E30200081A
:10023000E3020008E3020008E3020008E30200080A
:10024000E3020008E3020008E3020008E3020008FA
:10025000E3020008E3020008E3020008E3020008EA
:10026000E3020008E3020008E3020008E3020008DA
:10027000E3020008E3020008E3020008E3020008CA
:10028000E3020008E3020008E3020008E3020008BA
:10029000E3020008E3020008E3020008E3020008AA
:1002A000E3020008E3020008E3020008E30200089A
:1002B000E3020008E3020008E3020008E30200088A
:1002C000E3020008E3020008E3020008E30200087A
:1002D000E3020008E3020008E3020008E30200086A
:1002E00002E000F000F8FEE772B6374880F30888B5
:1002F000364880F3098836483649086040F20000E5
:10030000CCF200004EF63471CEF200010860BFF36B
:100310004F8FBFF36F8F40F20000C0F2F0004EF637
:100320008851CEF200010860BFF34F8FBFF36F8F8B
:100330004FF00000E1EE100A4EF63C71CEF20001E3
:100340000860062080F31488BFF36F8F02F0F8FE78
:1003500003F0E6FF4FF055301F491B4A91423CBF66
:1003600041F8040BFAE71D49184A91423CBF41F895
:10037000040BFAE71A491B4A1B4B9A423EBF51F83D
:10038000040B42F8040BF8E700201849184A914280
:100390003CBF41F8040BFAE702F010FF04F042F80A
:1003A000144C154DAC4203DA54F8041B8847F9E7A6
:1003B00000F042F8114C124DAC4203DA54F8041B21
:1003C0008847F9E702F0F8BE00060020002200206E
:1003D0000000000808ED00E00000002000060020FA
:1003E000E04E000800220020642200206822002045
:1003F00018490020E0020008E0020008E0020008BE
:10040000E00200082DE9F04F2DED108AC1F80CD064
:10041000D0F80CD0BDEC108ABDE8F08F002383F338
:1004200011882846A047002002F000F9FEE702F0FC
:100430008BF800DFFEE7000038B500F035FC00F077
:1004400001FE02F0DBFD054602F00EFE0446A8B9EF
:100450000E4B9D4215D001339D4214D041F2883598
:10046000002002F0D5FD0CB100F078F800F086FD18
:10047000284600F021F900F071F8F9E70025012481
:10048000EEE70546ECE70546F9E700BF010007B0D7
:1004900008B500F0D7FBA0F120035842584108BD31
:1004A00007B541F21203022101A8ADF8043000F0B3
:1004B000E5FB03B05DF804FB38B5302383F3118806
:1004C000174803680BB102F07DF90023154A4FF479
:1004D0007A71134802F06CF9002383F31188124CEF
:1004E000236813B12368013B2360636813B1636819
:1004F000013B63600D4D2B7833B963687BB90220F3
:1005000000F0A4FC322363602B78032B07D16368CF
:100510002BB9022000F09AFC4FF47A73636038BD67
:1005200078230020B90400086C23002074230020E5
:10053000084B187003280CD8DFE800F00805020803
:10054000022000F075BC022000F062BC024B0022C9
:100550005A607047742300206C230020F8B5504B7C
:10056000504A1C461968013100F0998004339342C7
:10057000F8D162684C4B9A4240F291804B4B9B6899
:1005800003F1006303F500339A4280F08880002075
:1005900000F0B0FB0220FFF7CBFF454B0021D3F862
:1005A000E820C3F8E810D3F81021C3F81011D3F8ED
:1005B0001021D3F8EC20C3F8EC10D3F81421C3F8C1
:1005C0001411D3F81421D3F8F020C3F8F010D3F8A5
:1005D0001821C3F81811D3F81821D3F8802042F05D
:1005E0000062C3F88020D3F8802022F00062C3F8B4
:1005F0008020D3F88020D3F8802042F00072C3F826
:100600008020D3F8802022F00072C3F88020D3F835
:10061000803072B64FF0E023C3F8084DD4E90004EF
:10062000BFF34F8FBFF36F8F224AC2F88410BFF31E
:100630004F8F536923F480335361BFF34F8FD2F848
:10064000803043F6E076C3F3C905C3F34E335B0154
:1006500003EA060C29464CEA81770139C2F8747224
:10066000F9D2203B13F1200FF2D1BFF34F8FBFF32C
:100670006F8FBFF34F8FBFF36F8F536923F4003336
:1006800053610023C2F85032BFF34F8FBFF36F8F17
:10069000302383F31188854680F308882047F8BD0E
:1006A0000000020820000208FFFF010800220020CD
:1006B0000044025800ED00E02DE9F04F95B0DFF85E
:1006C000E4B22022FF2101900CA8DBF8086000F0C2
:1006D000FFFBAF4A1378A3B90121AE481170036044
:1006E000302383F3118803680BB102F06BF8002309
:1006F000A94A4FF47A71A74802F05AF8002383F30D
:100700001188019B13B1A54B019A1A60A44A137872
:10071000032B03D000231370A04A53604FF000094D
:10072000019DCA464C46C846012000F081FB25B118
:100730009A4B1B68002B00F02082002000F082FA08
:100740000590059B002BF2DB012000F061FB059B6F
:10075000213B1F2BE8D801A252F823F0DD07000847
:10076000F907000881080008290700082907000880
:100770002907000811090008EB0A0008090A000807
:10078000670A00088F0A0008B50A00082907000850
:10079000C70A000829070008390B00087308000879
:1007A00029070008810B0008530900087308000896
:1007B00029070008670A0008290700082907000818
:1007C0002907000829070008290700082907000849
:1007D0002907000829070008810800080220FFF700
:1007E00057FE002800F0B58000F0BEFB0AF00B03B6
:1007F00001240B2B71D105E14FF47A7000F022FA3D
:10080000071EC0F2A6800220FFF742FE002800F07B
:10081000A080013F052F00F2DB81DFE807F0030A2B
:100820000D10132E0523042107A8079300F026FAC4
:1008300017E004215B48F9E704215B48F6E704214F
:100840005A48F3E74FF01C08404608F1040800F04E
:1008500053FA0421079007A800F010FAB8F12C0F02
:10086000F2D101234FF00008BB404AEA03035FFACC
:1008700083FA00F079FB84B3B8E704214C48D5E74C
:10088000002C66D00AF00B030B2B61D10220FFF77E
:10089000FFFD044600285BD00120002700F02AFA63
:1008A0000220FFF745FE1FFA87F9484600F032FAAA
:1008B0000546B0B93A4B01222E4602201A7000F0CC
:1008C000A7FADBF80830B3421BD80026344BA14608
:1008D0001E70324B5E6000F047FBFFF7E1FD2346E0
:1008E00074E1059948460137A1F140025142514156
:1008F00000F020FA05460028D5D1A14641F2121396
:100900002EE0304600F0F8F90130F6D10436D8E791
:10091000FCB10AF00B030B2B1AD10220FFF708FEE3
:10092000322000F08FF9071E12DB17F003030FD1FE
:10093000BA19DBF808108A420AD8B7F5807F07D8C1
:100940001C4A9F4213DCC820FFF7A2FD044698BB57
:100950000124019BB9F1000F08BF1D4641F212337B
:10096000022107A8ADF81C3000F088F9B7E74FF472
:100970007A70CDE9023200F065F9059005990029F9
:10098000E7DB0599039A029B02F8011B0133D8E7C4
:100990006823002078230020B90400086C2300207D
:1009A00074230020002200200422002008220020BE
:1009B0000C220020682200201F2E11D8C6F1200230
:1009C0000CAB26F003008449BA42184428BF3A46CB
:1009D000029200F05DFA029AFF217F4800F078FA57
:1009E000BB10C7F387027C493046029300F078FAC7
:1009F0000746002882D00422029B3C4613FB026675
:100A000000F0B2FA002568E70220FFF741FD002858
:100A10009FD000F0ADF900289BD000273B4612E0A4
:100A20001F2F1AD80C9A013217D027F00302503228
:100A30006A4452F8200C07900422184607A900F0D7
:100A400061FB04370346DBF80820BA42E8D8079375
:100A5000042107A800F012F90BE73846029300F0D2
:100A60004BF9029BE7E70023642106A8069300F0F8
:100A7000FDF800287FF46DAF0220FFF709FD002884
:100A80003FF467AF069800F069F90790E0E70023AC
:100A9000642106A8069300F0E9F800287FF459AF16
:100AA0000220FFF7F5FC00283FF453AF069800F052
:100AB00057F9EAE70220FFF7EBFC00283FF449AFC3
:100AC00000F066F9E1E70220FFF7E2FC00283FF4BE
:100AD00040AF07A9142000F061F9074604210690F1
:100AE00006A800F0CBF83946B3E7322000F0AAF8A8
:100AF000071EFFF62EAFBB077FF42BAF07EB0803F3
:100B0000DBF8082093423FF624AF0220FFF7C0FC39
:100B100000283FF41EAF27F003074744B8453FF4D1
:100B2000A8AE404608F1040800F0E6F8042107905A
:100B300007A800F0A3F8F1E74FF47A70FFF7A8FCDC
:100B400000283FF406AF00F013F900283FF4D6AEBA
:100B50000C9B01330CD008220CA9002000F0C0F936
:100B600000283FF4CBAE2022FF210CA800F0B0F902
:100B7000FFF796FC194801F05FFD15B0BDE8F08F56
:100B8000002C3FF4E6AE0AF00B030B2B7FF4E1AE32
:100B90000023642107A8079300F068F8074600289F
:100BA0007FF4D7AE0220FFF773FC029000283FF4D9
:100BB000D0AEFFF775FC41F2883001F03DFD07989B
:100BC00000F01EFA3D4600F0CFF9029B1C46ABE553
:100BD0004FF00008BDE600BF68220020A08601009B
:100BE0002DE9F0474FF47A7706460D460024574327
:100BF000DFF84880DFF8489098F900305A1C01D09F
:100C0000A3420FD159F824002A4631460368D3F88D
:100C100020A03B46D047854204D1074B01201C70E1
:100C2000BDE8F087631C0124022BE5D14FF4FA7074
:100C300001F002FD0020F3E7C02300201022002075
:100C400014220020002307B5024601210DF1070000
:100C50008DF80730FFF7C4FF20B19DF8070003B0FF
:100C60005DF804FB4FF0FF30F9E700000A4604216D
:100C700008B5FFF7B5FF013808BD0000074B0A466D
:100C800030B419780546064B53F82100294603680D
:100C9000DC69044BA44630BC604700BFC023002081
:100CA00014220020A086010070B5104C0026104DC3
:100CB00001F0CAFF208028682388834208D901F008
:100CC000BFFF2B6806440133B6F5003F2B60F2D31B
:100CD00000252088013801F0B3FF23880544013B3B
:100CE000B5F5802F2380F4D370BD00BFB82300205A
:100CF000BC23002002F07CB800F1006000F5003059
:100D00000068704700F10060920000F5003001F0CB
:100D1000F7BF0000054B1A68054B1B889B1A8342DE
:100D200002D9104401F08CBF00207047BC23002082
:100D3000B823002038B50446074D29B1286820445F
:100D4000BDE8384001F094BF2868204401F07EFFE0
:100D50000028F3D038BD00BFBC230020002070471E
:100D600000F1FF5000F58F10D0F800087047000028
:100D7000064991F8243033B100230822086A81F82B
:100D80002430FFF7BFBF0120704700BF9023002031
:100D9000014B1868704700BF0010005C194B1A4ADD
:100DA00070B51D68431E0420C5F30B040B442D0CC5
:100DB000013808D19942084610D30524134A013C52
:100DC00015D1401A70BD1688A6420ED15268084649
:100DD000013A9842F1D212F9014F1CB92C2200F8C5
:100DE000012BEAE700F8014BF3E70832E0E7168849
:100DF000AE4204D198423CBF967800F8016B0432B1
:100E0000DDE700BF0010005C1C220020484A0008FB
:100E1000022804D1054B4FF480129A6170470128D3
:100E2000FCD1024B4FF48002F7E700BF00100258DC
:100E3000022803D1044B10229A6170470128FCD18B
:100E4000014B4022F8E700BF00100258022805D1EC
:100E5000064A536983F01003536170470128FCD19F
:100E6000024A536983F04003F6E700BF00100258BE
:100E700070B504464FF47A7604B970BD412C25460E
:100E800028BF412506FB05F0641B01F0D5FBF3E705
:100E9000002310B5934200D110BDCC5CC454013383
:100EA000F8E70000013810B510F9013F3BB191F9A6
:100EB00000409C4203D11AB10131013AF4E71AB162
:100EC00091F90020981A10BD1046FCE7FFF7FEBF0D
:100ED00002440346934200D1704703F8011BF9E72F
:100EE0002DE9F0471F4D14460746894695F8242002
:100EF0009AB32B6A03EB820383422ED0FFF738FFAD
:100F000058BB0020BDE8F08795F824302BB920228B
:100F1000FF2114482F62FFF7DBFF95F824004946B4
:100F2000C0F1080805EB8000A04528BFA0464FEAA5
:100F30008802FFF7ADFF95F824305FFA88F60FFAC4
:100F400088FAA41B1E4407EB8A07F6B209EB88094E
:100F5000082EE4B285F82460D0D0002CD4D1012032
:100F6000D0E700BF90230020024B1A78024B1A7082
:100F7000704700BFC02300201022002038B51B4C52
:100F80001B4D204600F088FE2946204600F0B0FEAA
:100F90002D684FF47A70D5F89020D2F8043843F0D9
:100FA0000203C2F80438FFF763FF2846114900F036
:100FB000ADFFD5F89020104DD2F80438286823F002
:100FC0000203A042C2F804384FF4E1330B4A136025
:100FD00002D0114600F0BEFD6868A04204D0074967
:100FE000BDE8384000F0B6BD38BD00BFD02D0020B0
:100FF000584C0008604C000814220020C423002034
:10100000F8B50C4B05460C4E1F780C4B56F82720B4
:101010009A420DD00A4C002118222046FFF758FFB3
:10102000214656F827002560BDE8F84000F092BD43
:10103000F8BD00BFC023002014220020D02D0020C6
:10104000C4230020F8B571B6002301201A461946C2
:1010500000F056FA0446802001F068FF002843D0D3
:101060000025254A80274FF4D06C3D26136913F0E4
:10107000C06F26D1D2F8103113F0C06F21D1236890
:1010800005F1006199602368D86023685F60236878
:10109000C3F800C021680B6843F001030B602168AE
:1010A0000B6823F01E030B6021680B68DB07FCD480
:1010B000237B8035616806FA03F3B5F5001F0B60EA
:1010C000D4D1204600F05CFAB5F5001F0BD0002407
:1010D0000A4D0B4E012001F08BFE2B88A34204D851
:1010E000002001F085FE61B6F8BD3068204401346F
:1010F00001F0BEFDF1E700BF00200052B823002040
:10110000BC23002030B50A44084D914200D130BDC7
:1011100011F8013B5840082340F30004013B2C40E8
:1011200013F0FF0384EA5000F6D1EEE72083B8ED18
:1011300008B5074B074A196801F03D0199605368EB
:101140000BB190689847BDE8084001F0CFBF00BFE1
:1011500000000240DC23002008B5084B196889090B
:1011600001F03D018A019A60054AD3680BB110690C
:101170009847BDE8084001F0B9BF00BF0000024039
:10118000DC23002008B5084B1968090C01F03D016B
:101190000A049A60054A53690BB190699847BDE803
:1011A000084001F0A3BF00BF00000240DC23002084
:1011B00008B5084B1968890D01F03D018A059A6050
:1011C000054AD3690BB1106A9847BDE8084001F0A1
:1011D0008DBF00BF00000240DC23002008B5074B94
:1011E000074A596801F03D01D960536A0BB1906A12
:1011F0009847BDE8084001F079BF00BF00000240F9
:10120000DC23002008B5084B5968890901F03D012D
:101210008A01DA60054AD36A0BB1106B9847BDE8C2
:10122000084001F063BF00BF00000240DC23002043
:1012300008B5084B5968090C01F03D010A04DA6051
:10124000054A536B0BB1906B9847BDE8084001F01D
:101250004DBF00BF00000240DC23002008B5084B52
:101260005968890D01F03D018A05DA60054AD36BA2
:101270000BB1106C9847BDE8084001F037BF00BFC4
:1012800000000240DC23002008B5074B074A19681C
:1012900001F03D019960536C0BB1906C9847BDE82B
:1012A000084001F023BF00BF00040240DC230020FF
:1012B00008B5084B1968890901F03D018A019A6057
:1012C000054AD36C0BB1106D9847BDE8084001F09A
:1012D0000DBF00BF00040240DC23002008B5084B0E
:1012E0001968090C01F03D010A049A60054A536D22
:1012F0000BB1906D9847BDE8084001F0F7BE00BF04
:1013000000040240DC23002008B5084B1968890D51
:1013100001F03D018A059A60054AD36D0BB1106E4C
:101320009847BDE8084001F0E1BE00BF000402405C
:10133000DC23002008B5074B074A596801F03D013E
:10134000D960536E0BB1906E9847BDE8084001F02C
:10135000CDBE00BF00040240DC23002008B5084BCE
:101360005968890901F03D018A01DA60054AD36EA6
:101370000BB1106F9847BDE8084001F0B7BE00BF41
:1013800000040240DC23002008B5084B5968090C12
:1013900001F03D010A04DA60054A536F0BB1906F0A
:1013A0009847BDE8084001F0A1BE00BF000402401C
:1013B000DC23002008B5084B5968890D01F03D0178
:1013C0008A05DA60054AD36F13B1D2F880009847D6
:1013D000BDE8084001F08ABE00040240DC23002082
:1013E00000230C4A10B519460B4C42F8043B54F844
:1013F0002300016042F813100433402BF7D1074A51
:101400004FF0FF339360D360C2F80834C2F80C3455
:1014100010BD00BFDC230020D84A000800000240B5
:1014200011282DE9F041884611D004D8102810D198
:101430000F24002003E0122807D10F2407202D4F8E
:101440004FF0010C3D68A04205D900203BE0072485
:10145000EFE70446F3E70CFA00F6354248D107EB14
:10146000C0043543C4E90123F3B23D606BBB224B9A
:10147000D3F8D84044F00204C3F8D840D3F8004170
:1014800044F00204C3F80041D3F8003105011B4CBD
:101490006359186820F01F001860186810F00100E8
:1014A000FBD166194FF03D0C96F80CE071680CFA10
:1014B0000EF70F601860212058611AB14146B07BC9
:1014C00000F076F96019BDE8F0810B4B16F47F4F00
:1014D000D3F8D84044F00104C3F8D840D3F8004111
:1014E00044F00104C3F80041D3F80031CED0BEE788
:1014F0000130A8E7DC23002000440258D84A000845
:1015000010B5302484F31188FFF78AFF002383F39A
:10151000118810BD10B50446807B00F05FF91649B4
:10152000637B01229A400B6823EA0203DAB20B6064
:1015300072B9124AD2F8D81021F00101C2F8D810BD
:10154000D2F8001121F00101C2F80011D2F80021F7
:1015500013F47F4F0ED1094BD3F8D82022F00202AA
:10156000C3F8D820D3F8002122F00202C3F80021EA
:10157000D3F8003110BD00BFDC2300200044025826
:1015800008B5302383F31188FFF7C4FF002383F3EA
:10159000118808BD026843680A43026003B1184716
:1015A00070470000024A136843F0C003136070479D
:1015B0000010014013B50E4C204600F0BFFA04F1B4
:1015C000140000234FF400720A49009400F07CF9E3
:1015D000094B4FF40072094904F13800009400F0FF
:1015E000F5F9074A074BC4E9172302B010BD00BF45
:1015F0006028002060260020A51500086024002037
:101600000010014000E1F505264B30B5002914BF5C
:101610000C461C46037C012B11D1234B98420ED162
:10162000224BD3F8F02042F01002C3F8F020D3F898
:10163000182142F01002C3F81821D3F8183122689B
:10164000036EC16D03EB52038466B3FBF2F3626871
:10165000150442BF23F0070503F0070343EA4503DF
:10166000CB60A36843F040034B60E36843F00103A1
:101670008B6042F4967343F001030B604FF0FF332D
:101680000B6251050AD512F0102209D0B2F1805F29
:1016900014BFFF233F2380F8643030BDFF23FAE7F7
:1016A0007F23F8E7D84B0008602800200044025848
:1016B0002DE9F047C66D04463768F5692A0735629B
:1016C00014D06901AB074FF0300301F4907148BFAB
:1016D00041F04001680748BF41F0800183F3118861
:1016E000201DFFF757FF002383F31188EA050AD571
:1016F000302383F311884FF48061201DFFF74AFFE8
:10170000002383F311884FF030094FF0000A0BE0FB
:1017100089F31188736A204694F86410194000F028
:1017200027FA8AF31188F56915F02008F0D13B06F5
:1017300016D54FF0300A04F13809280610D58AF37F
:101740001188484600F076F9002829DA0821201D82
:10175000FFF720FF27F080033360002383F3118815
:10176000790614D56A0612D5302383F31188D4E99B
:1017700013239A4208D1236C33B127F0400710217C
:10178000201DFFF707FF3760002383F31188EB0666
:101790000BD5A26E136943B15069BDE8F0471847F5
:1017A000B06288F31188F569C7E7BDE8F0870000EB
:1017B000090100F16043012203F56143C9B283F8D6
:1017C000001300F01F039A4043099B0003F160439C
:1017D00003F56143C3F880211A60704700F01F03CE
:1017E00001229A40430900F160409B0000F56140EE
:1017F00003F1604303F56143C3F88020C3F88021FF
:10180000002380F800337047F8B515468268044617
:101810000B46AA4200D28568A1692669761AB542AC
:101820000BD22A461846FFF733FBA2692A44A36865
:101830002846A2615B1BA360F8BD0CD9AF1B1846FC
:101840003246FFF725FB3A46E1683044FFF720FBBC
:10185000E368DA19EBE72A461846FFF719FBE26856
:10186000E5E70000836893422DE9F04104460E4607
:10187000154600D28568D4E904703F1ABD420CD2E7
:101880002A463146FFF704FB62692A44A3682846CA
:1018900062615B1BA360BDE8F0810ED9A5EB070870
:1018A0003A463146FFF7F4FA4246F119E068FFF78D
:1018B000EFFAE36803EB0802E8E72A463146FFF750
:1018C000E7FAE268E2E7000010B50024C160C361F6
:1018D000029B84600362C0E905111144C0E9000065
:1018E000016110BD08B5D0E90532934201D182688B
:1018F00082B98268013282605A1C426119700021EB
:10190000D0E904329A4224BFC368436100F0B0FEBC
:10191000002008BD4FF0FF30FBE7000070B530231A
:1019200004460D4683F31188A668A6B1A368A26990
:10193000013BA360531CA36115782269934224BF25
:10194000E368A361E3690BB120469847002383F362
:101950001188284607E02946204600F079FE002835
:10196000E2DA86F3118870BD2DE9F74F05460F4680
:1019700014469946D0F81CA04FF0300888F311881F
:101980004FF0000B164666B1324639462846FFF73F
:101990003BFF034660B94946284600F059FE00283F
:1019A000F2D0002383F31188A01B03B0BDE8F08FB1
:1019B000BAF1000F03D001902846D047019B8BF36A
:1019C0001188F61A1F4488F31188DCE7C160C361EF
:1019D000009B82600362C0E905111144C0E9000068
:1019E00001617047F8B504460D461646302383F36F
:1019F0001188A768A7B1A368013BA36063695A1C5B
:101A000062611D70D4E904329A4224BFE3686361C5
:101A1000E3690BB120469847002080F3118807E066
:101A20003146204600F014FE0028E2DA87F31188E0
:101A3000F8BD0000D0E9052310B59A4201D18268B3
:101A40007AB982680021013282605A1C82611C7856
:101A500003699A4224BFC368836100F009FE2046EF
:101A600010BD4FF0FF30FBE72DE9F74F05460F465D
:101A700014469946D0F81CA04FF0300888F311881E
:101A80004FF0000B164666B1324639462846FFF73E
:101A9000E9FE034660B94946284600F0D9FD002812
:101AA000F2D0002383F31188A01B03B0BDE8F08FB0
:101AB000BAF1000F03D001902846D047019B8BF369
:101AC0001188F61A1F4488F31188DCE7026843681E
:101AD0000A43026003B11847704700001430FFF753
:101AE00043BF00004FF0FF331430FFF73DBF00004D
:101AF0003830FFF7B9BF00004FF0FF333830FFF741
:101B0000B3BF00001430FFF709BF00004FF0FF31F2
:101B10001430FFF703BF00003830FFF763BF000049
:101B20004FF0FF323830FFF75DBF0000012914BFCE
:101B30006FF0130000207047FFF73CBD044B0360BB
:101B400000234360C0E9023301230374704700BFE0
:101B5000F04B000810B53023044683F31188FFF7DB
:101B600053FD02230020237480F3118810BD000070
:101B700038B5C36904460D461BB904210844FFF774
:101B8000A5FF294604F11400FFF7ACFE002806DA91
:101B9000201D4FF40061BDE83840FFF797BF38BD06
:101BA000026843680A43026003B1184770470000A7
:101BB00013B5406B00F58054D4F8A4381A68117836
:101BC000042914D1017C022911D119790123128928
:101BD0008B4013420BD101A94C3002F05FF9D4F8CD
:101BE000A4480246019B2179206800F0DFF902B089
:101BF00010BD0000143002F0E7B800004FF0FF33D2
:101C0000143002F0E1B800004C3002F0B3B900002B
:101C10004FF0FF334C3002F0ADB90000143002F049
:101C2000B5B800004FF0FF31143002F0AFB800003B
:101C30004C3002F07FB900004FF0FF324C3002F020
:101C400079B900000020704710B500F58054D4F831
:101C5000A4381A681178042917D1017C022914D1FB
:101C60005979012352898B4013420ED1143002F06E
:101C700047F8024648B1D4F8A4084FF440734179BC
:101C80000068BDE8104000F07FB910BD406BFFF761
:101C9000DBBF0000704700007FB5124B0125042612
:101CA000044603600023057400F184024360294662
:101CB000C0E902330C4B0290143001934FF440738F
:101CC000009601F0F9FF094B04F69442294604F10D
:101CD0004C000294CDE900634FF4407302F0BAF86F
:101CE00004B070BD184C00088D1C0008B11B000822
:101CF0000A68302383F311880B790B3342F82300F1
:101D00004B79133342F823008B7913B10B3342F82C
:101D1000230000F58053C3F8A418022303740020A5
:101D200080F311887047000038B5037F044613B173
:101D300090F85430ABB90125201D0221FFF730FF88
:101D400004F114006FF00101257700F09DFC04F10F
:101D50004C0084F854506FF00101BDE8384000F0A9
:101D600093BC38BD10B5012104460430FFF718FFBD
:101D70000023237784F8543010BD000038B50446A2
:101D80000025143001F0B0FF04F14C00257702F07B
:101D900079F8201D84F854500121FFF701FF2046F7
:101DA000BDE83840FFF750BF90F88020034602F0AE
:101DB0006002202A14D190F881200020212A02D824
:101DC0001F2A03D87047222A07D07047054A5A674E
:101DD00007229A67D86701207047C3E91D00F9E719
:101DE000002070473422002037B500F58055D5F823
:101DF000A4381A68117804291AD1017C022917D154
:101E00001979012312898B40134211D100F14C043E
:101E1000204602F0F5F858B101A9204602F03EF83C
:101E2000D5F8A4480246019B2179206800F0BEF84D
:101E300003B030BD01F10B03F7B550F82360044641
:101E40000D46F6B1302383F3118804EB8507301D6E
:101E500008214C36FFF7A4FEFB685B691B6813B1D1
:101E6000304602F029F801A9304602F017F8024680
:101E700048B1019B2946204600F098F8002383F3DF
:101E8000118803B0F0BDFB685A691268002AF5D0CA
:101E90001B8A013B1340F1D104F18002EAE7000004
:101EA000133138B550F82140ECB1302383F3118859
:101EB00004F58053D3F8A4281368527903EB820306
:101EC000DB689B695D6845B104216018FFF768FE17
:101ED000294604F1140001F01DFF2046FFF7B4FE6F
:101EE000002383F3118838BD7047000001F0F6B974
:101EF00001234022002110B5044600F8303BFEF7D4
:101F0000E7FF0023C4E9013310BD000010B5302302
:101F1000044683F311882422416000210C30FEF72F
:101F2000D7FF204601F0FCF902230020237080F344
:101F3000118810BD70B500EB8103054650690E464F
:101F40001446DA6018B110220021FEF7C1FFA06923
:101F500018B110220021FEF7BBFF31462846BDE82C
:101F6000704001F0E3BA000083682022002103F0F2
:101F7000011310B5044683601030FEF7A9FF204618
:101F8000BDE8104001F05ABBF0B4012500EB81041C
:101F900047898D40E4683D43A4694581236000235F
:101FA000A2606360F0BC01F077BB0000F0B40125D3
:101FB00000EB810407898D40E4683D436469058135
:101FC00023600023A2606360F0BC01F0E9BB000065
:101FD00070B5022300250446242203702946C0F868
:101FE00088500C3040F8045CFEF772FF204684F8FD
:101FF000705001F02FFA63681B6823B12946204610
:10200000BDE87040184770BD0378052B10B5044635
:102010000AD080F88C300523037043681B680BB12D
:10202000042198470023A36010BD00000178052912
:1020300006D190F88C20436802701B6803B11847E2
:102040007047000070B590F87030044613B100235B
:1020500080F8703004F18002204601F013FB6368C1
:102060009B68B3B994F8803013F0600535D0002137
:10207000204601F0FDFD0021204601F0EDFD6368E2
:102080001B6813B1062120469847062384F8703058
:1020900070BD204698470028E4D0B4F88630A56F7C
:1020A0009D4284BF1D46A36794F98030002B4FF0FA
:1020B000300380F20381002D00F0F280092284F8C1
:1020C000702083F3118800212046D4E91D23FFF7F7
:1020D0006DFF002383F31188DAE794F8812003F081
:1020E0007F0343EA022340F20232934200F0C580AC
:1020F00021D8B3F5807F48D00DD8012B3FD0022BDB
:1021000000F09380002BB2D104F1880262670222B2
:10211000A267E367C1E7B3F5817F00F09B80B3F569
:10212000407FA4D194F88230012BA0D1B4F888303C
:1021300043F0020332E0B3F5006F4DD017D8B3F58A
:10214000A06F31D0A3F5C063012B90D863682046FF
:1021500094F882205E6894F88310B4F88430B04715
:10216000002884D0436863670368A3671AE0B3F567
:10217000106F36D040F6024293427FF478AF5C4B4A
:1021800063670223A3670023C3E794F88230012B1F
:102190007FF46DAFB4F8883023F00203A4F88830E0
:1021A000C4E91D55E56778E7B4F88030B3F5A06F52
:1021B0000ED194F88230204684F88A3001F0A8F9D4
:1021C00063681B6813B101212046984703232370DD
:1021D0000023C4E91D339CE704F18B0363670123EB
:1021E000C3E72378042B10D1302383F311882046D2
:1021F000FFF7BAFE85F311880321636884F88B50DA
:1022000021701B680BB12046984794F88230002B50
:10221000DED084F88B300423237063681B68002BA6
:10222000D6D0022120469847D2E794F88430204641
:102230001D0603F00F010AD501F016FA012804D09B
:1022400002287FF414AF2B4B9AE72B4B98E701F051
:10225000FDF9F3E794F88230002B7FF408AF94F88F
:10226000843013F00F01B3D01A06204602D501F0D6
:1022700017FDADE701F008FDAAE794F88230002BC6
:102280007FF4F5AE94F8843013F00F01A0D01B0654
:10229000204602D501F0ECFC9AE701F0DDFC97E75F
:1022A000142284F8702083F311882B462A4629468D
:1022B0002046FFF769FE85F31188E9E65DB1152236
:1022C00084F8702083F3118800212046D4E91D236F
:1022D000FFF75AFEFDE60B2284F8702083F3118885
:1022E0002B462A4629462046FFF760FEE3E700BF5B
:1022F000484C0008444C0008404C000838B590F8A1
:1023000070300446002B3ED0063BDAB20F2A34D898
:102310000F2B32D8DFE803F0373131082232313168
:102320003131313131313737856FB0F886309D42E8
:1023300014D2C3681B8AB5FBF3F203FB12556DB9C7
:10234000302383F311882B462A462946FFF72EFEB9
:1023500085F311880A2384F870300EE0142384F882
:102360007030302383F31188002320461A46194623
:10237000FFF70AFE002383F3118838BDC36F03B152
:1023800098470023E7E70021204601F071FC002177
:10239000204601F061FC63681B6813B106212046EA
:1023A00098470623D7E7000010B590F87030044630
:1023B000142B29D017D8062B05D001D81BB110BD7E
:1023C000093B022BFBD80021204601F051FC0021E3
:1023D000204601F041FC63681B6813B106212046CA
:1023E0009847062319E0152BE9D10B2380F87030AC
:1023F000302383F3118800231A461946FFF7D6FDD0
:10240000002383F31188DAE7C3689B695B68002BBC
:10241000D5D1C36F03B19847002384F87030CEE75D
:1024200000238268037503691B6899689142FBD297
:102430005A680360426010605860704700238268E9
:10244000037503691B6899689142FBD85A68036059
:10245000426010605860704708B50846302383F327
:1024600011880A7D0023052A06D8DFE802F00B0553
:102470000503120E826913604FF0FF338361FFF78B
:10248000CFFF002383F3118808BD8269936801336D
:102490009360D0E9003213605A60EDE7FFF7C0BFE8
:1024A000054BD96808751868026853601A600122E4
:1024B000D8600275FDF7A6BFE02A00200C4B30B5AE
:1024C000DD684B1C87B004460FD02B46094A68468E
:1024D00000F06EF92046FFF7E3FF009B13B168465A
:1024E00000F070F9A86907B030BDFFF7D9FFF9E730
:1024F000E02A00205924000838B50C4D04468161BB
:10250000EB6881689A68914203D8BDE83840FFF7CC
:1025100087BF1846FFF792FF01230146EC60204673
:102520002375BDE83840FDF76DBF00BFE02A0020ED
:10253000044B1A68DB6890689B68984294BF00203F
:1025400001207047E02A0020084B10B51C68D868AD
:10255000226853601A600122DC602275FFF76EFF6B
:1025600001462046BDE81040FDF74CBFE02A0020A0
:1025700038B50123084C00252370656001F07CFD0F
:1025800001F0A2FD0549064801F036FE0223237042
:1025900085F3118838BD00BF382B00204C4C000853
:1025A000E02A002000F044B9034A516853685B1ADE
:1025B0009842FBD8704700BF001000E08B600223F8
:1025C000086108468B8270478368A3F1840243F850
:1025D000142C026943F8442C426943F8402C094A00
:1025E00043F8242CC268A3F1200043F8182C0222DF
:1025F00003F80C2C002203F80B2C034A43F8102C90
:10260000704700BF1D040008E02A002008B5FFF74E
:10261000DBFFBDE80840FFF741BF0000024BDB686D
:1026200098610F20FFF73CBFE02A0020302383F39E
:102630001188FFF7F3BF000008B50146302383F38C
:1026400011880820FFF73AFF002383F3118808BDA3
:10265000064BDB6839B1426818605A60136043600A
:102660000420FFF72BBF4FF0FF307047E02A002017
:1026700003460068834205D002681A605360816196
:10268000FFF70CBF7047000038B504460D462068C0
:10269000844200D138BD036823605C608561FFF728
:1026A000FDFEF4E7036810B59C68A2420CD85C6894
:1026B0000B608A604C60216059609968891A996042
:1026C0004FF0FF33836010BD121B1B68ECE7000066
:1026D0000A2938BF0A2170B504460D460A2660193A
:1026E00001F0C4FC01F0ACFC041BA54203D8751C2E
:1026F00004462E46F3E70A2E04D90120BDE87040B7
:1027000001F0BABD70BD0000F8B5144B14460A279D
:102710000D46D9610A2C826003F1100238BF0A24E9
:1027200042601A69026050601861081901F08EFC5D
:1027300001F086FC431B0646A34206D37C1C2819E5
:102740002746354601F092FCF2E70A2F04D9012012
:10275000BDE8F84001F090BDF8BD00BFE02A0020C0
:1027600070B50D46064601F06BFC0F490B4653F859
:10277000102F9A4206D12A4601463046BDE87040E5
:10278000FFF7C2BFCB69C41A93682C1928BF2C4627
:10279000A34202D92946FFF79BFF22463146034850
:1027A000BDE87040FFF77EBFE02A0020F02A00203D
:1027B00010B4C0E9032300235DF8044B4361FFF725
:1027C000CFBF000010B5194C236998420DD0816825
:1027D000D0E9003213605A609A680A449A60002374
:1027E00003604FF0FF33A36110BD0268234643F836
:1027F000102F53600022026022699A4203D1BDE883
:10280000104001F02DBC936881680B44936001F087
:1028100017FC2269E1699268441AA242E4D9114482
:10282000BDE81040091AFFF753BF00BFE02A00209F
:102830002DE9F843284E294F356901F001FCF46970
:10284000AA68011B8A423AD81444D5E90032F461DF
:1028500013605A6000232B6098463269BA4201D156
:1028600001F0FEFB88F31188D5E90331284698472B
:10287000302383F311886B69002BDDD001F0E0FB7E
:102880006A69A0EB0408814642450CD2022001F09F
:10289000F3FC00223369BB4208D149462846BDE813
:1028A000F843FFF731BF2244121AF3E712EB08088E
:1028B00029460A4838BF4246FFF7F4FEBBE73169B4
:1028C000B94207D01444F061211AA960BDE8F84369
:1028D000FFF7FEBEBDE8F883E02A0020F02A0020C2
:1028E00000207047FEE70000704700004FF0FF3007
:1028F0007047000002290CD0032904D001290748A1
:1029000018BF00207047032A05D8054800EBC20015
:102910007047044870470020704700BF084D00080A
:102920003C220020BC4C000870B59AB00546084611
:10293000144601A900F0C0F801A8FEF7C7FA431C2D
:102940000022C6B21BB210465B00C5E900342370FA
:102950000323023404F8013C01ABD1B202348E42AD
:1029600001D81AB070BD13F8011B013204F8010C34
:1029700004F8021CF1E7000008B5302383F3118846
:102980000348FFF731FA002383F3118808BD00BF25
:10299000D02D002090F8803003F01F02012A07D1CB
:1029A00090F881200B2A03D10023C0E91D3315E0E4
:1029B00003F06003202B08D1B0F884302BB990F8D5
:1029C0008120212A03D81F2A04D8FFF7EDB9222A33
:1029D000EBD0FAE7034A426707228267C367012008
:1029E000704700BF5C22002010B50446052916D8A8
:1029F000DFE801F016150316161D302383F3118846
:102A00000E4A0121FFF796FA20460D4A0221FFF7F0
:102A100091FA0C48FFF7B2F9002383F3118810BD37
:102A2000302383F311880748FFF77EF9F4E730235A
:102A300083F311880348FFF795F9EDE7944C0008FC
:102A4000704C0008D02D002038B50B4C0B4D0A4AB5
:102A50000B490A48FFF768FF04F1CA0205F10800B4
:102A60000849FFF761FF04F5CA7205F11000064935
:102A7000BDE83840FFF758BF702B002044220020EB
:102A8000864A0008904A00089B4A000870B5044630
:102A900008460D46FEF71AFAC6B2204601340378FE
:102AA0000BB9184670BD32462946FEF7FBF90028DF
:102AB000F3D10120F6E70000F8B505460C46FEF715
:102AC00005FA294907462846FFF7E0FF0646274949
:102AD0002846C6EBC606FFF7D9FF06EB00163E44B4
:102AE000F6B2632E1BD929462046BDE8F84001F016
:102AF000A3BF252E34D107221B492846FEF7D2F961
:102B000090B91B4B224603F10C0153F8040B8B4286
:102B100042F8040BF9D11B8807350E3413802E7848
:102B2000002EE6D12670F8BD082210492846FEF78F
:102B3000B9F9A8B9A21C0F4B0F48104E19780232F0
:102B40000909415C02F8041C13F8011B01F00F0194
:102B5000B342415C02F8031CF0D118340835DEE7BB
:102B6000013504F8016BDAE7A44A00089B4A000823
:102B7000AC4A000800E8F11FBB4A00080CE8F11F4E
:102B8000BFF34F8F044B1A695107FCD1D3F81021C2
:102B90005207F8D1704700BF0020005208B50D4B16
:102BA0001B78ABB9FFF7ECFF0B4BDA68D10704D504
:102BB0000A4A5A6002F188325A60D3F80C21D207CF
:102BC00006D5064AC3F8042102F18832C3F804216D
:102BD00008BD00BF78460020002000522301674551
:102BE00008B5114B1B78F3B9104B1A69510703D57F
:102BF000DA6842F04002DA60D3F81021520705D5B6
:102C0000D3F80C2142F04002C3F80C21FFF7B8FFC3
:102C1000064BDA6842F00102DA60D3F80C2142F088
:102C20000102C3F80C2108BD7846002000200052A4
:102C30000F289ABF00F58060400400207047000014
:102C40004FF4003070470000102070470F2808B57F
:102C50000BD8FFF7EDFF00F500330268013204D115
:102C600004308342F9D1012008BD0020FCE70000B8
:102C70000F2838B505463FD8FFF782FF1F4CFFF7F6
:102C80008DFF4FF0FF3307286361C4F814311DD85E
:102C90002361FFF775FF030243F02403E360E36859
:102CA00043F08003E36023695A07FCD42846FFF70A
:102CB00067FFFFF7BDFF4FF4003100F0B7F928467A
:102CC000FFF78EFFBDE83840FFF7C0BFC4F81031F2
:102CD000FFF756FFA0F108031B0243F02403C4F8DA
:102CE0000C31D4F80C3143F08003C4F80C31D4F823
:102CF00010315B07FBD4D9E7002038BD002000521B
:102D00002DE9F74F80460C46104648EA0203DB06E1
:102D100003D0002003B0BDE8F08F20F01F002E4D3F
:102D20002E4EFFF73BFF04EB000A2D4F544503D115
:102D30000120FFF755FFEDE720224146204601F034
:102D40006BFE18B908F120082034EFE7434608F17C
:102D5000200219680131DCD104339342F9D108F122
:102D60007843B3F5801F35BF1E4A2A461E483846B1
:102D700034BFDFF878B0B3460192FFF701FF4FF0A0
:102D8000FF33A8EB040E04F11C0C019ACBF80030C1
:102D9000036843F002030360231F116811F0050963
:102DA000FBD153F8041F63454EF80310F5D1BFF370
:102DB0004F8FFFF7E5FE4FF0FF3320222146CBF87F
:102DC0000030036823F002030360404601F024FE54
:102DD0000028B7D04846ACE7102100521421005219
:102DE0000C210052102000520C20005214200052DE
:102DF00010B5084C237828B11BB9FFF7CFFE01238B
:102E0000237010BD002BFCD02070BDE81040FFF7F0
:102E1000E7BE00BF784600202DE9F74F0E46054675
:102E2000002878D011F00D0839D1002944D04FF096
:102E3000080A4FF00109394F06F0040306EA090BAE
:102E4000BBF1000F44D07969CC0741D409F10109E5
:102E50000C37B9F1060FF3D1B8F1000F13D1304E92
:102E60005246294606EB080001F050F9044658BBCB
:102E700008F11808B8F1780FF2D15246294601F04E
:102E800045F9044600BB52462946264801F03EF962
:102E9000044600283AD1204603B0BDE8F08F0F0762
:102EA00007D5431E034236D182461F3525F01F0544
:102EB000BFE74FF0200AF8E701460822304601F04C
:102EC00025F904460028B2D02A46002120461FE0FA
:102ED000B3B1796911F0040FB8D0310702D579691F
:102EE0000A07B3D5019318200F4B5246294600FB21
:102EF000093001F00BF9019B04460028A6D0E3E756
:102F0000B007EAD5796911F0020FE5E72A460021FA
:102F1000FDF7DEFFBFE70024BDE700BF244D00083A
:102F2000AC4600207C460020944600200121FFF79B
:102F300073BF0000F8B5144D01241827134E40F25A
:102F4000FF3200210120FDF7C3FF07FB04600134BD
:102F50002A6955F80C1F01F0C5F8062CF5D1372564
:102F60004FF4C0542046FFF7E1FF014628B1224646
:102F70000748BDE8F84001F0B5B8C4EBC404013D12
:102F80004FEAD404EED1F8BD244D00089446002049
:102F90007C4600200244064BD2B210B5904200D1CC
:102FA00010BD441C53F8200041F8040BE0B2F5E7D3
:102FB000504000580E4B30B51C6F240405D41C6FD4
:102FC0001C671C6F44F400441C670A4C02442368CD
:102FD000D2B243F480732360074B904200D130BDDE
:102FE000441C51F8045B43F82050E0B2F5E700BF01
:102FF00000440258004802585040005807B50122CA
:1030000001A90020FFF7C6FF019803B05DF804FB9B
:1030100013B50446FFF7F2FFA04205D0012201A933
:1030200000200194FFF7C6FF02B010BD0144BFF3BA
:103030004F8F064B884204D3BFF34F8FBFF36F8F80
:103040007047C3F85C022030F4E700BF00ED00E0F9
:10305000034B1A681AB9034AD2F8D0241A60704791
:10306000244700200040025808B5FFF7F1FF024B4B
:10307000D878C0F3800008BD24470020EFF309830F
:10308000054968334A6B22F001024A6383F30988D9
:10309000002383F31188704700EF00E0302080F3B5
:1030A000118862B60D4B0E4AD96821F4E06109041B
:1030B000090C0A430B49DA60D3F8FC2042F0807215
:1030C000C3F8FC20084AC2F8B01F116841F00101A2
:1030D00011602022DA7783F82200704700ED00E0CB
:1030E0000003FA0555CEACC5001000E0302310B542
:1030F00083F311880E4B5B6813F4006314D0F1EE78
:10310000103AEFF309844FF08073683CE361094B98
:10311000DB6B236684F30988FFF70AFA10B1064BCC
:10312000A36110BD054BFBE783F31188F9E700BFEE
:1031300000ED00E000EF00E02F040008320400087A
:1031400070B5BFF34F8FBFF36F8F1A4A0021C2F8DB
:103150005012BFF34F8FBFF36F8F536943F40033A7
:103160005361BFF34F8FBFF36F8FC2F88410BFF36B
:103170004F8FD2F8803043F6E074C3F3C900C3F335
:103180004E335B0103EA0406014646EA81750139C4
:10319000C2F86052F9D2203B13F1200FF2D1BFF3F5
:1031A0004F8F536943F480335361BFF34F8FBFF3A5
:1031B0006F8F70BD00ED00E0FEE700001E4A1F4B60
:1031C0001F4970B58B422ED31E4A002193422FD344
:1031D0001D4AC2F88410BFF34F8FD2F8803043F6F7
:1031E000E074C3F3C900C3F34E335B0103EA040682
:1031F000014646EA81750139C2F86C52F9D2203B8A
:1032000013F1200FF2D1BFF34F8FBFF36F8FBFF3D6
:103210004F8FBFF36F8F0023C2F85032BFF34F8F31
:10322000BFF36F8F70BD52F8040B43F8040BC9E76E
:1032300043F8041BCAE700BF444F000818490020A8
:10324000184900201849002000ED00E0074BD3F892
:10325000D82022EA0002C3F8D820D3F8002122EABD
:103260000002C3F80021D3F800317047004402582F
:1032700070B5D0E9244300224FF0FF359E6804EB7F
:1032800042135101D3F80009002805DAD3F80009E8
:1032900040F08040C3F80009D3F8000B002805DA9D
:1032A000D3F8000B40F08040C3F8000B01326318E4
:1032B0009642C3F80859C3F8085BE0D24FF00113F7
:1032C000C4F81C3870BD0000890141F02001016183
:1032D00003699B06FCD41220FFF766B908B50A48BB
:1032E000FEF706FE084A094B0948C2F89030094B20
:1032F000C2F89430FEF7FCFD074B054AC2F8903047
:10330000064BC2F8943008BDDC470020000008409E
:1033100040470020784D0008000004406C4D000834
:1033200070B503780546012B5CD1434BD0F8904033
:10333000984258D1414B0E216520D3F8D82042F055
:103340000062C3F8D820D3F8002142F00062C3F82D
:103350000021D3F80021D3F8802042F00062C3F8A6
:103360008020D3F8802022F00062C3F88020D3F8B8
:103370008030FEF71DFA324BE360324BC4F8003860
:103380000023D5F89060C4F8003EC02323604FF4BA
:103390000413A3633369002BFCDA01230C2033618F
:1033A000FFF702F93369DB07FCD41220FFF7FCF8C2
:1033B0003369002BFCDA00262846A660FFF758FF89
:1033C0006B68C4F81068DB68C4F81468C4F81C683B
:1033D00083BB1D4BA3614FF0FF336361A36843F0D0
:1033E0000103A36070BD194B9842C9D1134B4FF034
:1033F00080600E21D3F8D82042F00072C3F8D820A4
:10340000D3F8002142F00072C3F80021D3F8002164
:10341000D3F8802042F00072C3F88020D3F88020D7
:1034200022F00072C3F88020D3F88030FFF70EFF3F
:103430004D209EE7064BCDE7DC47002000440258B4
:103440004014004003002002003C30C040470020F0
:10345000083C30C0F8B5D0F89040054600214FF048
:1034600000662046FFF730FFD5F8941000234FF098
:1034700001128F684FF0FF30C4F83438C4F81C28AC
:1034800004EB431201339F42C2F80069C2F8006B9B
:10349000C2F80809C2F8080BF2D20B68D5F89020E0
:1034A000C5F89830636210231361166916F0100690
:1034B000FBD11220FFF778F8D4F8003823F4FE632C
:1034C000C4F80038A36943F4402343F01003A36118
:1034D0000923C4F81038C4F814380B4BEB604FF0D4
:1034E000C043C4F8103B094BC4F8003BC4F8106952
:1034F000C4F80039D5F8983003F1100243F4801372
:10350000C5F89820A362F8BD844D000840800010E3
:10351000D0F8902090F88A10D2F8003823F4FE6397
:1035200043EA0113C2F800387047000000EB810342
:10353000DA682DE9F04716688046D0F890500C46BE
:1035400006F003064FEA810905EB4110731E4FEAAE
:10355000411A1031022B4FF0000398BFB604C0F897
:10356000103B4FF001038CBF324E06F1805603FA38
:1035700001F3916998BF06F5004600293AD0508AB8
:1035800004F15801304349016850D5F81C180B4329
:10359000C5F81C38AA4400230127611ECAF8103957
:1035A000A74053698BB3138A928B9B08012A88BF6B
:1035B0005343D8F89820981842EA034201F1400397
:1035C0002146C8F89800284605EB83035A60FFF7A8
:1035D0007BFE08EB0900C3681B8A43EA8453483426
:1035E000334364012B51D5F81C383B43C5F81C38D4
:1035F000BDE8F087D0F8001B21F40041C0F8001BA3
:10360000D5F81C1821EA0303C2E704F13F030A4A74
:103610002146284605EB83035A60FFF755FEDAF88A
:10362000003923F40043CAF80039D5F81C3823EADE
:103630000703DBE70080001000040002D0F89420AC
:103640001268C0F89820FFF713BE00005831D0F878
:10365000903049015B5813F4004004D013F4001F6C
:1036600014BF0120022070474831D0F89030490142
:103670005B5813F4004004D013F4001F14BF012062
:103680000220704700EB8100C368196A0B68136061
:103690004B6853607047000000EB810330B5DD6874
:1036A000AB691A68DA6019B9402A84BF40221A60EF
:1036B0006B8A5C1E1444D0F89020480102EB411143
:1036C000B4FBF3F46343033323F0030343EAC4433B
:1036D00043F0C043C1F8103B2B6803F00303012BF8
:1036E0000CD1D2F8083813F4807FD1F8003B14BF16
:1036F00043F0805343F00053C1F8003B0244D2F83A
:10370000003B43F00443C2F8003B30BD2DE9F041DB
:10371000D0F8906005460C4606EB4113D3F8087BC1
:103720003A07C3F8087B08D5D6F814381B0704D528
:1037300000EB8103DB685B689847FA071FD5D6F872
:103740001438DB071BD505EB8403D968CCB98B692A
:10375000488A5A68B2FBF0F600FB16228AB918684C
:10376000DA6890420DD2121AC3E90024302383F3A1
:10377000118821462846FFF78FFF84F31188BDE8A2
:10378000F08101226B89A24023EA02036B81CB689E
:10379000002BF4D021462846BDE8F0411847000030
:1037A00000EB8103D0F89020480170B5DD686C69AA
:1037B0002368E36033BB13184FF40024C3F81049A7
:1037C0002B6803F00303012B0DD1D2F8083814182D
:1037D00013F4807FD4F8003914BF43F0805343F0D2
:1037E0000053C4F800391044D0F8003943F00443C2
:1037F000C0F800390123D2F834088B400343C2F8E3
:10380000343870BD19B9402B84BF402323602E8A01
:10381000741E1C44B4FBF6F443EAC443141843F08A
:103820000053C4F81039CBE72DE9F843D0F8906085
:1038300005460C464F0106EB4113D3F8088918F0F2
:10384000010FC3F808891CD0D6F81038DB0718D54B
:1038500000EB8103D3F80CC0DCF81430D3F800E09F
:10386000DA68964530D2A2EB0E024FF000091A60DA
:10387000C3F80490302383F31188FFF791FF89F395
:10388000118818F0800F1DD0D6F834380126A640D4
:10389000334217D005EB84030134D5F89050D3F8A8
:1038A0000CC0E4B22F44DCF8142005EB0434D2F849
:1038B00000E05168714513D3D5F8343823EA060384
:1038C000C5F83438BDE8F883012203898A4023EA29
:1038D00002030381DCF80830002BD2D09847D0E7F0
:1038E000AEEB0103BCF81000834228BF0346D7F8B3
:1038F000180980B2B3EB800FE4D89068A0F10409F6
:1039000059F8048FC4F80080A0EB09089844B8F176
:10391000040FF5D81844194490605160C9E70000BD
:103920002DE9F047D0F8905004466E69AB691E400F
:1039300016F480576E6103D0BDE8F047FEF748BB30
:10394000002E12DAD5F8003E990705D0D5F8003ED2
:1039500023F00303C5F8003ED5F80438204623F0D1
:103960000103C5F80438FEF761FB320505D5204692
:10397000FFF77EFC2046FEF747FBB3040CD5D5F8D5
:10398000083813F0060FEB6823F470530CBF43F4B0
:10399000105343F4A053EB6030071BD56368DB681A
:1039A0001BB9AB6923F00803AB612378052B0CD15D
:1039B000D5F8003E990705D0D5F8003E23F0030363
:1039C000C5F8003E2046FEF731FB6368DB680BB1AB
:1039D00020469847F20200F1A280B3020DD5D4F838
:1039E00090904FF000084FF0010AD4F894305FFA3D
:1039F00088F19B688B4280F0CC80F00619D5D4F812
:103A00009000026AC2F30A1C02F00F0302F4F012E3
:103A1000B2F5802F00F0E580B2F5402F09D104EB1C
:103A20008303002200F58050DB681B6A944540F058
:103A3000CD803003D5F8185835D5E90303D50021DA
:103A40002046FFF763FEAA0303D501212046FFF7B6
:103A50005DFE6B0303D502212046FFF757FE2F03BF
:103A600003D503212046FFF751FEE80203D50421C8
:103A70002046FFF74BFEA90203D505212046FFF79C
:103A800045FE6A0203D506212046FFF73FFE2B02C2
:103A900003D507212046FFF739FEEF0103D50821A2
:103AA0002046FFF733FE700340F1C080E90703D5DD
:103AB00000212046FFF7B8FEAA0703D501212046C2
:103AC000FFF7B2FE6B0703D502212046FFF7ACFEDD
:103AD0002F0703D503212046FFF7A6FEEE0603D5E8
:103AE00004212046FFF7A0FEA80603D505212046A5
:103AF000FFF79AFE690603D506212046FFF794FEDC
:103B00002A0603D507212046FFF78EFEEB0540F17C
:103B10008D8020460821BDE8F047FFF785BED4F828
:103B200090A04FF00009D4F894305FFA89F89B68B0
:103B30004345FFF452AF0AEB4813D3F8002902F4CF
:103B40004022B2F5802F21D1D3F80029002A1DDAB6
:103B5000D3F8002942F09042C3F80029D3F8002995
:103B6000002AFBDB4146D4F89000FFF7ADFB0122B1
:103B7000238902FA08F223EA0203238104EB880373
:103B8000DB689B6813B141462046984709F101095B
:103B9000C9E709EB4112D2F8003B03F44023B3F527
:103BA000802F10D1D2F8003B002B0CDA63890AFA7F
:103BB00001F223EA0203638104EB8103DB68DB6823
:103BC0000BB12046984708F101080EE7910700D194
:103BD0000768072A02F101029CBF03F8017B3F0A34
:103BE00024E704EB830300F58050DA68D2F818E08C
:103BF000DEF80820DEE9001EA1EB0E0E00218C4548
:103C000008D1DB689B699A6862449A605A6862448A
:103C10005A600EE711F0030F00D107688E4501F1DD
:103C2000010184BF02F8017B3F0AE8E7BDE8F087A5
:103C300008B50348FFF774FEBDE80840FFF756BA21
:103C4000DC47002008B50348FFF76AFEBDE80840DE
:103C5000FFF74CBA40470020D0F8903003EB4111F9
:103C6000D1F8003B43F40013C1F8003B704700005B
:103C7000D0F8903003EB4111D1F8003943F4001330
:103C8000C1F8003970470000D0F8903003EB4111C3
:103C9000D1F8003B23F40013C1F8003B704700004B
:103CA000D0F8903003EB4111D1F8003923F4001320
:103CB000C1F800397047000030B50433039C01722D
:103CC000002104FB0325C160C0E90653049B036384
:103CD000059BC0E90000C0E90422C0E90842C0E930
:103CE0000A11436330BD00000022416AC260C0E98E
:103CF0000411C0E90A226FF00101FEF7C5BC000003
:103D0000D0E90432934201D1C2680AB9181D704744
:103D100000207047036919600021C2680132C26047
:103D2000C269134482699342036124BF436A0361F9
:103D3000FEF79EBC38B504460D46E3683BB16269A8
:103D40000020131D1268A3621344E36207E0237A84
:103D500033B929462046FEF77BFC0028EDDA38BD52
:103D60006FF00100FBE70000C368C269013BC3605C
:103D70004369134482699342436124BF436A4361A8
:103D800000238362036B03B11847704770B530237B
:103D9000044683F31188866A3EB9FFF7CBFF0546D8
:103DA00018B186F31188284670BDA36AE26A13F839
:103DB000015B9342A36202D32046FFF7D5FF0023A5
:103DC00083F31188EFE700002DE9F84F04460F4612
:103DD00091469A464FF0300888F311880026B34682
:103DE000A56A4DB951462046FFF7A4FF20B185F3DF
:103DF00011883046BDE8F88FD4E90A15A9EB06030F
:103E00006D1A9D4228BF1D46402D1AD93B4601F12F
:103E1000400251F8040B914243F8040BF9D1A36A14
:103E2000403740364033E26AA3629A4202D82046C5
:103E3000FFF79AFF8BF311884E45DAD288F3118889
:103E4000CEE738462A46FDF723F8A36A2F442E44CE
:103E50002B44E8E710B5029C0433017203FB0421F4
:103E6000C460C0E906130023C0E90A33039B03635F
:103E7000049BC0E90000C0E90422C0E90842436392
:103E800010BD0000026A6FF00101C260426AC0E921
:103E900004220022C0E90A22FEF7F6BB0346D0E95D
:103EA0000420824201D1DB681BB950F8043B0B604F
:103EB000704700231846FAE7C3680021C26901333E
:103EC000C3604369134482699342436124BF436AD8
:103ED0004361FEF7CDBB000038B504460D46E368EC
:103EE0003BB1236900201A1DA262E2691344E36218
:103EF00007E0237A33B929462046FEF7A9FB0028BC
:103F0000EDDA38BD6FF00100FBE7000003691960CE
:103F1000C268013AC260C269134482699342036174
:103F200024BF436A036100238362036B03B1184714
:103F30007047000070B530230D460446114683F3E8
:103F40001188866A2EB9FFF7C7FF10B186F3118872
:103F500070BDA36A1D70A36AE26A01339342A36233
:103F600004D3E16920460439FFF7D0FF002080F335
:103F70001188EDE72DE9F84F05460C4691469A4623
:103F80004FF0300888F311880027BB46AE6A4EB95F
:103F900051462846FFF7A0FF20B186F31188384626
:103FA000BDE8F88FD5E90A06A9EB0703361A9E4249
:103FB00028BF1E46402E1AD904F1400354F8042BA2
:103FC0009C4240F8042BF9D1AB6A40374033EA6A8F
:103FD000AB629A4204D8E96928460439FFF796FF94
:103FE0008BF311884F45DAD288F31188CEE721464A
:103FF0003246FCF74DFFAB6A344437443344E6E7BE
:10400000D0E9042103468A4216D1C068A8B1986A53
:1040100098B10438801A10D010600120D968013995
:10402000D960D9690A4499698A421A6124BF5A6AD7
:104030001A6100229A6270470020704700F01EBA91
:10404000014B586A704700BF000C0040034B002230
:1040500058631A610222DA60704700BF000C00400A
:10406000014B0022DA607047000C0040014B58639E
:10407000704700BF000C0040024B034A1A60034A1D
:104080005A6070477848002018490020000002203C
:10409000074B494210B55C68201A08401968821A1B
:1040A0008A4203D3A24201D85A6010BD0020FCE727
:1040B0007848002008B5302383F31188FFF7E8FF24
:1040C000002383F3118808BD04480121044B0360D9
:1040D0000023C0E901330C3000F0D6B8804800203E
:1040E000B5400008CB1D083A23F00703591A521AAD
:1040F000012110B4D2080024C0E9004384600C30D0
:104100001C605A605DF8044B00F0BEB82DE9F84F12
:10411000374BCD1D0F46002814BF80469846082A0D
:104120004FEAD50538BF082208F10C0A08F104044B
:104130009146504600F0C4F809F10701C9F1000C9E
:104140002246246874B9504600F0C4F8D8F800300C
:10415000CBB308224946E8009847044698B340E9A3
:10416000028730E06618D4F804E006EA0C060EF187
:104170000103A6F1080004EBC3038342E0D99E1BB0
:10418000B5EBE60F4FEAE60BDAD884421ED204F113
:104190000803AB45A0EB03034FEAE30363600BD9CD
:1041A000691CABEB050B00EBC1020BF1FF33536055
:1041B000236840F83130226004464760504644F896
:1041C000088B00F087F82046BDE8F88FAE452168DF
:1041D0000AD0013504EBC50044F8351000F10801A0
:1041E0005B1A0146DB10436020461160E4E700BF24
:1041F00080480020FEE7000070B5002504461A4BF9
:1042000086B085620E4601635860FEF747FF04F1F1
:104210001003A560E562C4E904334FF0FF33C4E93D
:104220000044C4E90635FFF70BFF2B46024604F1B4
:1042300034012046C4E9082380230C4A2565FEF793
:10424000BDF901230A4AE06000920375684672686E
:104250000192B268CDE90223064BCDE90435FEF7A1
:10426000D5F906B070BD00BF382B0020CC4A00083D
:10427000D14A0008F5410008024AD36A0343D362D9
:10428000704700BFE02A0020C0E90000816070474D
:104290008368013B002B10B583600CDA074BDC68A8
:1042A0004368A061206063601C6044600520FEF7E5
:1042B000F7F8A06910BD0020FCE700BFE02A00204D
:1042C00008B5302383F31188FFF7E2FF002383F35F
:1042D000118808BD08B53022034682F31188826830
:1042E0000132002A826006DC0068002102681A6040
:1042F0005360FEF701F9002383F3118808BD000025
:104300004B6843608B688360CB68C3600B69436113
:104310004B6903628B6943620B680360704700005E
:1043200008B53B4B40F2FF713A48D3F888200A4366
:10433000C3F88820D3F888206FF30A02C3F88820D6
:10434000D3F88820D3F8E0200A43C3F8E020D3F85C
:1043500008210A433049C3F808210A46D3F8083136
:10436000FFF7CEFF00F580601C31FFF7C9FF02F1B7
:10437000380100F58060FFF7C3FF02F1540100F53A
:104380008060FFF7BDFF02F1700100F58060FFF76C
:10439000B7FF02F18C0100F58060FFF7B1FF02F179
:1043A000A80100F58060FFF7ABFF02F1C40100F542
:1043B0008060FFF7A5FF02F1E00100F58060FFF7E4
:1043C0009FFF02F1FC0100F58060FFF799FF02F505
:1043D0008C7100F58060FFF793FF00F01BF90F4B25
:1043E000D3F8902242F00102C3F89022D3F894222D
:1043F00042F00102C3F894220522C3F898204FF03E
:104400006052C3F89C20064AC3F8A02008BD00BF34
:104410000044025800000258A84D000800ED00E0DA
:104420001F00080308B500F0D7FAFEF7A1F8104BFB
:10443000D3F8DC2042F04002C3F8DC20D3F804219A
:1044400022F04002C3F80421D3F80431094B1A6862
:1044500042F008021A601A6842F004021A60FEF77D
:10446000F7FDFEF767FDBDE80840FEF7EDBA00BFB7
:10447000004402580018024870470000114BD3F85E
:10448000E82042F00802C3F8E820D3F8102142F0F7
:104490000802C3F810210C4AD3F81031D36B43F053
:1044A0000803D363C722094B9A624FF0FF32DA62E6
:1044B00000229A615A63DA605A6001225A611A60D6
:1044C000704700BF004402580010005C000C004020
:1044D000094A08B51169D3680B40D9B29B076FEA46
:1044E0000101116107D5302383F31188FEF75AF8D3
:1044F000002383F3118808BD000C0040064BD3F85D
:10450000DC200243C3F8DC20D3F804211043C3F8B5
:104510000401D3F8043170470044025808B53C4BFD
:104520004FF0FF31D3F8802062F00042C3F88020C2
:10453000D3F8802002F00042C3F88020D3F8802016
:10454000D3F88420C3F88410D3F884200022C3F861
:104550008420D3F88400D86F40F0FF4040F4FF007F
:1045600040F4DF4040F07F00D867D86F20F0FF4074
:1045700020F4FF0020F4DF4020F07F00D867D86FE0
:10458000D3F888006FEA40506FEA5050C3F88800B3
:10459000D3F88800C0F30A00C3F88800D3F8880075
:1045A000D3F89000C3F89010D3F89000C3F890208F
:1045B000D3F89000D3F89400C3F89410D3F8940083
:1045C000C3F89420D3F89400D3F89800C3F8981057
:1045D000D3F89800C3F89820D3F89800D3F88C004B
:1045E000C3F88C10D3F88C00C3F88C20D3F88C005F
:1045F000D3F89C00C3F89C10D3F89C10C3F89C20FF
:10460000D3F89C30FCF7ECFEBDE8084000F0B8B9E8
:104610000044025808B50122534BC3F80821534BFC
:10462000D3F8F42042F00202C3F8F420D3F81C219E
:1046300042F00202C3F81C210222D3F81C314C4B79
:10464000DA605A689104FCD54A4A1A6001229A60DD
:10465000494ADA6000221A614FF440429A61444BA1
:104660009A699204FCD51A6842F480721A603F4B32
:104670001A6F12F4407F04D04FF480321A67002280
:104680001A671A6842F001021A60384B1A6850071C
:10469000FCD500221A611A6912F03802FBD10121FF
:1046A00019604FF0804159605A67344ADA62344ADF
:1046B0001A611A6842F480321A602C4B1A6891030E
:1046C000FCD51A6842F480521A601A689204FCD52C
:1046D0002C4A2D499A6200225A63196301F57C0124
:1046E000DA6301F2E71199635A64284A1A64284A86
:1046F000DA621A6842F0A8521A601C4B1A6802F07B
:104700002852B2F1285FF9D148229A614FF48862A9
:10471000DA6140221A621F4ADA641F4A1A651F4A88
:104720005A651F4A9A6532231E4A1360136803F0C4
:104730000F03022BFAD10D4A136943F003031361EF
:10474000136903F03803182BFAD14FF00050FFF72C
:10475000D5FE4FF08040FFF7D1FE4FF00040BDE89E
:104760000840FFF7CBBE00BF008000510044025854
:104770000048025800C000F0020000010000FF01E4
:10478000008890081210200063020901470E0508F6
:10479000DD0BBF0120000020000001100910E00027
:1047A00000010110002000524FF0B04208B5D2F8CD
:1047B000883003F00103C2F8883023B1044A13683B
:1047C0000BB150689847BDE80840FEF78FBC00BFAA
:1047D000984800204FF0B04208B5D2F8883003F076
:1047E0000203C2F8883023B1044A93680BB1D06841
:1047F0009847BDE80840FEF779BC00BF9848002004
:104800004FF0B04208B5D2F8883003F00403C2F884
:10481000883023B1044A13690BB150699847BDE849
:104820000840FEF763BC00BF984800204FF0B0423C
:1048300008B5D2F8883003F00803C2F8883023B1F5
:10484000044A93690BB1D0699847BDE80840FEF768
:104850004DBC00BF984800204FF0B04208B5D2F8D8
:10486000883003F01003C2F8883023B1044A136A79
:104870000BB1506A9847BDE80840FEF737BC00BF4F
:10488000984800204FF0B04310B5D3F8884004F4A6
:104890007872C3F88820A30604D5124A936A0BB134
:1048A000D06A9847600604D50E4A136B0BB1506B63
:1048B0009847210604D50B4A936B0BB1D06B9847F0
:1048C000E20504D5074A136C0BB1506C9847A30559
:1048D00004D5044A936C0BB1D06C9847BDE81040E6
:1048E000FEF704BC984800204FF0B04310B5D3F851
:1048F000884004F47C42C3F88820620504D5164A37
:10490000136D0BB1506D9847230504D5124A936D72
:104910000BB1D06D9847E00404D50F4A136E0BB16C
:10492000506E9847A10404D50B4A936E0BB1D06E1C
:104930009847620404D5084A136F0BB1506F98472B
:10494000230404D5044A936F0BB1D06F9847BDE898
:104950001040FEF7CBBB00BF9848002008B50348C5
:10496000FCF7A6FEBDE80840FEF7C0BB60280020AB
:1049700008B5FFF7ADFDBDE80840FEF7B7BB000086
:10498000062108B50846FCF713FF06210720FCF7AF
:104990000FFF06210820FCF70BFF06210920FCF77A
:1049A00007FF06210A20FCF703FF06211720FCF76A
:1049B000FFFE06212820FCF7FBFE09217A20FCF7E8
:1049C000F7FE07213220FCF7F3FE0C212520BDE87D
:1049D0000840FCF7EDBE000008B5FFF79FFD00F0B2
:1049E0000DF8FDF7A9F8FDF781FAFDF753F9FFF788
:1049F00043FDBDE80840FFF721BB00000023054A46
:104A000019460133102BC2E9001102F10802F8D156
:104A1000704700BF9848002010B501390244904209
:104A200001D1002005E0037811F8014FA34201D025
:104A3000181B10BD0130F2E7034611F8012B03F8F3
:104A4000012B002AF9D1704701105A0003105900B8
:104A5000012058000320560053544D333248373F4D
:104A60003F3F0053544D3332483733782F37327835
:104A70000053544D3332483734332F3735332F37C3
:104A80003530006330004172647550696C6F74009A
:104A900025424F415244252D424C00255345524951
:104AA000414C250025424F41524425004D69636F1A
:104AB0004169723734332D50504D00303132333428
:104AC0003536373839414243444546006D61696E99
:104AD0000069646C6500000010000240080002409C
:104AE0000008024000000B002800024008000240BD
:104AF0000408024006010C00400002400800024089
:104B00000808024010020D00580002400800024050
:104B10000C08024016030E00700002400C00024018
:104B20001008024000040F00880002400C00024000
:104B30001408024006051000A00002400C000240CC
:104B40001808024010061100B80002400C00024094
:104B50001C08024016072F001004024008040240FF
:104B600020080240000838002804024008040240DF
:104B700024080240060939004004024008040240AB
:104B800028080240100A3A00580402400804024073
:104B90002C080240160B3B00700402400C0402403B
:104BA00030080240000C3C00880402400C04024023
:104BB00034080240060D4400A00402400C040240E8
:104BC00038080240100E4500B80402400C040240B0
:104BD0003C080240160F460000960000000000004E
:104BE00000000000000000000000000000000000C5
:104BF00000000000F91A0008E51A0008211B00084F
:104C00000D1B0008191B0008051B0008F11A0008FD
:104C1000DD1A00082D1B000800000000111C000810
:104C2000FD1B0008391C0008251C0008311C000869
:104C30001D1C0008091C0008F51B0008451C000885
:104C4000010000000000000000000000834A00088E
:104C5000D0280020E02A0020DC47002001010200CB
:104C6000E9290008F5280008952900087929000895
:104C70000300000000000000E91E00080000000022
:104C800010000000402B0020000000000100000088
:104C9000000000000200000000000000351E0008B7
:104CA000A11E000840004000602B0020502B002077
:104CB000020000000000000004030904430000009B
:104CC000C44C000809024300020100C0320904007C
:104CD0000001020201000524001001052401000169
:104CE000042402020524060001070582030800FFD0
:104CF00009040100020A000000070501024000004B
:104D0000070581024000000012000000104D00085D
:104D10001201100102000040091241570002010275
:104D2000030100000000002000000200020000005B
:104D30000000003000000400080000000000002413
:104D400000000800040000000004000000FC000057
:104D50000200000000000430008000000800000095
:104D60000000003800000100010000000001000008
:104D7000001000000800000080000000400100005A
:104D8000080000000000000045200008FD22000887
:104D9000A923000840004000304700203047002091
:104DA00001000000284700200000A86A0000000061
:104DB000AAAAAAAA00001464FFFF000000000000D5
:104DC00070A70A000000000100000000AAAAAAAA19
:104DD00000000001FFFF00000000000000000000D4
:104DE0000000000000000000AAAAAAAA000000001B
:104DF000FFFF0000000000000000000000050000B0
:104E000000000000AAAAAAAA00050000FFFF0000F7
:104E10000000000000000000001100000000000081
:104E2000AAAAAAAA00000000AFFF0000000000002C
:104E3000000000000000000000000000AAAAAAAACA
:104E400000000000FFFF0000000000000000000064
:104E50000000000000000000AAAAAAAA00000000AA
:104E6000FFFF000000000000000000000000000044
:104E700000000000AAAAAAAA00000000FFFF00008C
:104E80000000000000000000000000000000000022
:104E9000AAAAAAAA00000000FFFF0000000000006C
:104EA000000000000000000000000000AAAAAAAA5A
:104EB00000000000FFFF00000000000000000000F4
:104EC0000000000000000000AAAAAAAA000000003A
:104ED000FFFF0000000000000000000000000000D4
:104EE0008E0400000000000000001A000000000016
:104EF000FF000000D02D00206028002000000000EE
:104F0000584A000883040000634A00085004000067
:104F1000714A00080096000000000800040000002C
:104F2000B84C000800000000000000000000000075
:104F300000000000000000000000000000960000DB
:044F40000000080065
:00000001FF
